:100000000C94DC000C9404010C9404010C94920EEA
:100010000C9404010C9404010C9404010C9404014C
:100020000C9404010C9404010C9404010C94620ED1
:100030000C9404010C9404010C9404010C9404012C
:100040000C94A10C0C9404010C94110D0C94EB0C69
:100050000C9404010C9404010C9404010C9404010C
:100060000C94430D0C94040158012C0171012701DB
:100070008D012201AC011D01CD011801F201130116
:100080001A020E014602090176020401AB02FF00CA
:10009000E502FA002503F5006B03F000B903EB005D
:1000A0000E04E6006C04E100D404DC004705D70030
:1000B000C505D2005106CD00EB06C8009507C30068
:1000C0005008BE001F09B900020AB400FB0AAF00C5
:1000D0000D0CAA00380DA5007F0EA000E20F9B00BA
:1000E0006311960002139100C0148C009B168700C8
:1000F00092188200A41A7D00CD1C7800091F73009D
:1001000053216E00A5236900FA2564004A285F0088
:100110008F2A5A00C22C5500DE2E5000DD304B00D5
:10012000BB3246007434410008363C007537370056
:10013000BB383200DB392D00D83A2800B43B23000D
:10014000703C1E00113D1900993D14000B3E0F003C
:100150006A3E0A00B93E0500F93E000000000000BA
:10016000240027002A0000000000250028002B00A2
:1001700000000000230026002900040404040404F5
:100180000404020202020202030303030303010246
:100190000408102040800102040810200102040815
:1001A0001020000000080002010000030407000006
:1001B000000000000000E50E11241FBECFEFD4E0C8
:1001C000DEBFCDBF11E0A0E0B1E0E2EEF5E302C09A
:1001D00005900D92A438B107D9F723E0A4E8B1E067
:1001E00001C01D92A239B207E1F710E0CCEDD0E0DA
:1001F00004C02197FE010E94A919CB3DD107C9F780
:100200000E94D2100C94EF1A0C9400008F929F92CF
:10021000AF92BF92CF92DF92EF92FF920F931F9314
:10022000CF93DF938B01D82FC92F9B01482F592FD4
:100230006091520370915303809154039091550340
:100240000E94BF17882309F43EC080905603909007
:100250005703A0905803B090590375016401F7FA51
:10026000F094F7F8F094A7019601B8018D2F9C2F18
:100270000E94BF1787FD0EC0A5019401B8018D2F04
:100280009C2F0E941E197501640118161CF068014C
:10029000ED2EFC2E20E030E0A901C701B6010E943E
:1002A000BF1781111DC010923D0310923E031092A2
:1002B0003F0310924003C0925203D0925303E09246
:1002C0005403F0925503DF91CF911F910F91FF904E
:1002D000EF90DF90CF90BF90AF909F908F90089558
:1002E000A701960160E074E284E799E40E94C417D4
:1002F0009F770E943D1860933D0370933E03809367
:100300003F0390934003C1E020E030E0A901C70122
:10031000B6010E941E1918160CF0C0E0C0933C03F1
:10032000CACF833081F028F4813099F08230A9F06F
:1003300008958730A9F08830C9F08430B1F48091F5
:1003400080008F7D03C0809180008F778093800034
:10035000089584B58F7784BD089584B58F7DFBCFD4
:100360008091B0008F778093B00008958091B000A5
:100370008F7DF9CFCF93DF93282F30E0F901EE5531
:10038000FE4F8491F901E257FE4FD491F901E658EE
:10039000FE4FC491CC23A1F081110E949101EC2F5A
:1003A000F0E0EE0FFF1FE059FE4FA591B491EC91E4
:1003B000ED2381E090E009F480E0DF91CF91089592
:1003C00080E090E0FACFCF93809130030E94BA0191
:1003D00020913203C2E02817190609F0C0E080918D
:1003E00031030E94BA01209132032817190609F43B
:1003F000C1608C2FCF9108951F93CF93DF93282F47
:1004000030E0F901EE55FE4F8491F901E257FE4FBD
:10041000D491F901E658FE4FC491CC23A9F0162FD0
:1004200081110E949101EC2FF0E0EE0FFF1FEA59BD
:10043000FE4FA591B4918FB7F894EC91111108C0BB
:10044000D095DE23DC938FBFDF91CF911F9108956C
:10045000DE2BF8CFCF93DF9390E0FC01E257FE4F05
:10046000249186589E4FFC0184918823C9F090E026
:10047000880F991FFC01E45AFE4FA591B491FC012D
:10048000EA59FE4FC591D49161110DC09FB7F89400
:100490008C91209582238C938881282328839FBF69
:1004A000DF91CF910895623051F49FB7F8943C9159
:1004B000822F809583238C93E8812E2BEFCF8FB7EB
:1004C000F894EC912E2B2C938FBFEACF8E3008F04E
:1004D0008E508770806480937C0080917A00806465
:1004E00080937A0080917A0086FDFCCF809178001D
:1004F0009091790008952F923F924F925F927F9250
:100500008F929F92AF92BF92CF92DF92EF92FF9223
:100510000F931F93CF93DF9300E110E0D0E0C0E092
:1005200080917E030E946602C80FD91F01501109F5
:10053000B9F777247394872D90E020E088369207EE
:1005400008F087C0AC01440F551F440F551FBA0176
:1005500068597F4FFB0125913491C217D3070CF0E6
:1005600076C00197880F991F880F991FDC01A65943
:10057000BF4FFD01C590D49088599F4FFC01259134
:100580003491FA01E659FF4FE590F490FD01A590F2
:10059000B490FB0105911491FC0185909490BE01EB
:1005A000621B730B072E000C880B990B0E946E18B0
:1005B0001B012C01B7016A197B09072E000C880B5F
:1005C000990B0E946E189B01AC01C201B1010E94FF
:1005D00023191B012C01B80168197909072E000C99
:1005E000880B990B0E946E189B01AC01C201B101EE
:1005F0000E94C4174B015C01B601DD0C880B990BFE
:100600000E946E189B01AC01C501B4010E945317F2
:100610002DE372120AC0EAE5F1E065917491072EAC
:10062000000C880B990B0E946E18DF91CF911F91DF
:100630000F91FF90EF90DF90CF90BF90AF909F9081
:100640008F907F905F904F903F902F90089573947C
:1006500072CF60E070E0CB01DBCF3FB7F8948091C0
:10066000730290917402A0917502B091760226B542
:10067000A89B05C02F3F19F00196A11DB11D3FBFDA
:10068000BA2FA92F982F8827BC01CD01620F711DA9
:10069000811D911D42E0660F771F881F991F4A95A3
:1006A000D1F708958F929F92AF92BF92CF92DF922F
:1006B000EF92FF924B015C010E942D036B017C01C4
:1006C0000E942D036C197D098E099F09683E7340B5
:1006D00081059105A8F321E0821A9108A108B108CB
:1006E00088EEC80E83E0D81EE11CF11C8114910431
:1006F000A104B10429F7FF90EF90DF90CF90BF9055
:10070000AF909F908F90089508950895AF92BF92F3
:10071000CF92DF92EF92FF920F931F93CF93DF93CD
:100720006C017B018B01040F151FEB015E01AE18FC
:10073000BF08C017D10759F06991D601ED91FC911E
:100740000190F081E02DC6010995892B79F7C5014B
:10075000DF91CF911F910F91FF90EF90DF90CF909D
:10076000BF90AF900895FC01538D448D252F30E04C
:10077000842F90E0821B930B541710F0CF960895AE
:1007800001970895FC01918D828D981761F0A28DDB
:10079000AE0FBF2FB11D5D968C91928D9F5F9F73A1
:1007A000928F90E008958FEF9FEF0895FC01918D57
:1007B000828D981731F0828DE80FF11D858D90E0C4
:1007C00008958FEF9FEF0895FC01918D228D892F61
:1007D00090E0805C9F4F821B91098F739927089549
:1007E00087E792E00E94E40321E0892B09F420E0EE
:1007F000822F089580E090E0892B29F00E94F00379
:1008000081110C9400000895FC01A48DA80FB92F4C
:10081000B11DA35ABF4F2C91848D90E001968F7328
:100820009927848FA689B7892C93A089B1898C9147
:10083000837080648C93938D848D981306C0028896
:10084000F389E02D80818F7D80830895EF92FF9260
:100850000F931F93CF93DF93EC0181E0888F9B8DE3
:100860008C8D98131AC0E889F989808185FF15C09D
:100870009FB7F894EE89FF896083E889F9898081C0
:100880008370806480839FBF81E090E0DF91CF918F
:100890001F910F91FF90EF900895F62E0B8D10E0B1
:1008A0000F5F1F4F0F731127E02E8C8D8E110CC020
:1008B0000FB607FCFACFE889F989808185FFF5CF6B
:1008C000CE010E940404F1CFEB8DEC0FFD2FF11D42
:1008D000E35AFF4FF0829FB7F8940B8FEA89FB89A8
:1008E00080818062CFCFCF93DF93EC01888D882306
:1008F000B9F0AA89BB89E889F9898C9185FD03C083
:10090000808186FD0DC00FB607FCF7CF8C9185FF67
:10091000F2CF808185FFEDCFCE010E940404E9CFA4
:10092000DF91CF910895CF93DF93FC01278122239C
:1009300059F1EC0161E080850E942A0261E089851D
:100940000E942A028F81843011F08830B1F461E076
:100950008A850E942A0261E08B850E942A028FA567
:100960008F3F91F061E00E942A026EA581E0682726
:100970008FA5DF91CF910C94FC01833011F086306C
:1009800071F761E08A85E9CFDF91CF910895CF9328
:10099000DF93FC0127812223A9F0EC010190F08173
:1009A000E02D0284F385E02D60E009958FA58F3F4F
:1009B00049F061E00E942A026EA58FA5DF91CF91D8
:1009C0000C94FC01DF91CF910895DC01ED91FC9135
:1009D000228533854770552766277727415051096F
:1009E00061097109473051056105710560F4FA012B
:1009F000E450FB4F0C94A919060508050A050C05DF
:100A00000E051005120561E0F901099465E0FCCFBF
:100A100064E0FACF66E0F8CF62E0F6CF6AE0F4CFA8
:100A200068E0F2CF69E0F0CFCF93DF93EC01CB0128
:100A3000BA0126E030E040E050E00E940217623048
:100A400071058105910589F16CF4611571058105C8
:100A50009105D1F06130710581059105F9F0DF91C3
:100A6000CF910895643071058105910561F124F1FC
:100A7000653071058105910591F7E881F98102845E
:100A8000F385E02D66E006C0E881F9810284F385F4
:100A9000E02D64E0CE01DF91CF910994E881F981E6
:100AA0000284F385E02D65E0F5CFE881F9810284C9
:100AB000F385E02D61E0EECFE881F9810284F385D2
:100AC000E02D63E0E7CFE881F9810284F385E02D32
:100AD00062E0E0CFDC01ED91FC910284F385E02D32
:100AE0004370552766277727423051056105710508
:100AF00071F0433051056105710559F041305105E0
:100B00006105710511F065E0099466E0FDCF6AE0CA
:100B1000FBCF69E0F9CFCF93DF93EC01CB01BA01B2
:100B200023E030E040E050E00E94021761307105A0
:100B30008105910599F06230710581059105A9F053
:100B4000672B682B692BC1F4E881F9810284F38556
:100B5000E02D64E0CE01DF91CF910994E881F98125
:100B60000284F385E02D61E0F5CFE881F98102840C
:100B7000F385E02D62E0EECFDF91CF910895DC01A7
:100B8000ED91FC910284F385E02D43705527662793
:100B90007727423051056105710571F043305105E9
:100BA0006105710559F0413051056105710511F07C
:100BB00062E0099463E0FDCF61E0FBCF60E0F9CF34
:100BC000CF93DF93EC01E881F9810284F385E02D76
:100BD0008A8160E0811162E0CE010995E881F981A6
:100BE0000284F385E02D8A8161E0811163E0CE010A
:100BF00009958CA59DA58230910538F0880F991F25
:100C0000880F991F05970197F1F7E881F981028410
:100C1000F385E02D8A8160E0811162E0CE01DF91F1
:100C2000CF910994CF93DF93EC0120E030E0A9014C
:100C3000688D798D8A8D9B8D0E941E1918162CF453
:100C4000E8A9F9A9DF91CF910994EAA9FBA9FACF04
:100C5000CF92DF92EF92FF920F931F93CF93DF9388
:100C6000DC011796CC91C43039F0C83059F1C3304B
:100C700019F0C63049F1C2E08C01085F1F4FF12C1A
:100C8000E12CC62ED12CD1E0F8016481C6010E2CD6
:100C900002C0959587950A94E2F780FD6D270F5F56
:100CA0001F4F80810E94FC01BFEFEB1AFB0AEC167C
:100CB00058F3DF91CF911F910F91FF90EF90DF904C
:100CC000CF900895C4E0D8CFC3E0D6CFDC0117960B
:100CD000EC911797E93008F038C0F0E0EE58F94F82
:100CE0000C94A9197B06810687068D069306A50636
:100CF0009906A5069F06ED91FC910684F785E02DE7
:100D00000994ED91FC910088F189E02DF9CFED91E6
:100D1000FC910288F389E02DF3CFED91FC910488DA
:100D2000F589E02DEDCFED91FC910688F789E02D56
:100D3000E7CFED91FC91008CF18DE02DE1CFED91AD
:100D4000FC91028CF38DE02DDBCF0895CF92DF92E2
:100D5000EF92FF920E942D036B017C018091620350
:100D600090916303A0916403B0916503B701A6015C
:100D7000481B590B6A0B7B0B80913D0390913E03FE
:100D8000A0913F03B0914003481759076A077B07BA
:100D9000A8F180914A0390914B03A0914C03B0912C
:100DA0004D0320913C03222329F10196A11DB11D81
:100DB00080934A0390934B03A0934C03B0934D034D
:100DC00040914A0350914B0360914C0370914D0345
:100DD0008AE393E00E946606C0926203D0926303A6
:100DE000E0926403F092650381E0FF90EF90DF9062
:100DF000CF9008950197A109B109DACF80E0F5CF2E
:100E00004F925F926F927F928F929F92AF92BF921A
:100E1000CF92DF92EF92FF920F931F93CF93DF93C6
:100E2000EC01CC88DD88EE88FF8888899989AA89B9
:100E3000BB89C81AD90AEA0AFB0A688D798D8A8D9E
:100E40009B8D9B01AC010E9423194B015C0168A1A1
:100E500079A18AA19BA19B01AC010E9453179B0120
:100E6000AC01C501B4010E94C4170E943618C11418
:100E7000D104E104F10409F0B6C0623071058105C6
:100E800091050CF0D0C01B821C821D821E82188E20
:100E9000198E1A8E1B8E1CAA1DAA1EAA1FAAC12C4F
:100EA000D12C7601C701B601DF91CF911F910F912F
:100EB000FF90EF90DF90CF90BF90AF909F908F907A
:100EC0007F906F905F904F90089510161106120654
:100ED0001306B4F46C157D058E059F051CF42A815C
:100EE0002111A1C09B01AC0188279927DC01821B3D
:100EF000930BA40BB50B8CAB9DABAEABBFAB93C050
:100F0000011511052105310509F48DC06C157D050C
:100F10008E059F050CF087C08A81882309F483C061
:100F200030952095109501951F4F2F4F3F4F0CABDB
:100F30001DAB2EAB3FAB77C0011511052105310567
:100F400009F471C08824992454018C189D08AE08B6
:100F5000BF08681579058A059B050CF064C08A8175
:100F6000811161C0DDCFCCACDDACEEACFFACA70134
:100F70009601C701B6010E9453172B013C01C50120
:100F8000B4010E946E1820E030E040E850E40E9476
:100F9000231920E030E040E85FE30E9453179B01F3
:100FA000AC01C301B2010E94C4179B01AC01C7018F
:100FB000B6010E9452173B016C01FE01E05CFF4F3D
:100FC000E080F180028113819701A8010E941E191F
:100FD000181614F473018601C701D8018CAF9DAFB8
:100FE000AEAFBFAF3AC00CA91DA92EA93FA91C14D2
:100FF0001D041E041F040CF468CF101611061206FF
:1010000013060CF099CF0027112798010C191D0920
:101010002E093F0960177107820793070CF062CF12
:101020002A8121115FCF8CA89DA8AEA8BFA88114EA
:101030009104A104B10409F096CF88AD99ADAAAD91
:10104000BBAD8CAF9DAFAEAFBFAF81E01C141D0434
:101050001E041F040CF080E08A833FEF831A930A7A
:10106000A30AB30A8CAA9DAAAEAABFAA8CAC9DAC57
:10107000AEACBFACC501B4010E943D186B017C0150
:10108000CB82DC82ED82FE82A501940160E074E2F5
:1010900084E799E40E94C417688F798F8A8F9B8FA9
:1010A0002A812111FFCE9058688F798F8A8F9B8F6C
:1010B000F9CECF92DF92EF92FF92CF93DF93CAE304
:1010C000D3E0688D798D8A8D9B8D9B01AC010E9448
:1010D00023196B017C0168A179A18AA19BA19B01C5
:1010E000AC010E9453179B01AC01C701B6010E94DD
:1010F000C4170E9436186CAB7DAB8EAB9FABCE0194
:10110000DF91CF91FF90EF90DF90CF900C9400078C
:10111000089508952091C501260F3327331F2132EA
:101120003105ECF420910E02FC0190E080E02430C7
:1011300069F082E00895A091C5012191AC014B5561
:101140005E4FA40FB52FB11D2C930196861798F30F
:101150008091C501680F6093C50180E0089581E02A
:10116000089510920E0281E080930D021092E80122
:1011700061E082E10E94FC0161E083E10E94FC01E8
:10118000E9EBF0E080818E7F808380818D7F80839A
:1011900088E48093B80085E48093BC000895CF93E1
:1011A000DF9391E09093A4018823B9F0C091B80037
:1011B000D091BA008091BC008A7B8093BC0060E033
:1011C00082E10E94FC0160E083E10E94FC010E9438
:1011D000B108D093BA00C093B800DF91CF910895C1
:1011E0000895E0913D0280913C02E81730F4F0E070
:1011F000EC57FE4F808190E008958FEF9FEF0895A8
:1012000090913D0280913C022FEF3FEF981748F4F8
:10121000E92FF0E0EC57FE4F208130E09F5F909384
:101220003D02C901089580913C0290913D02891BC5
:10123000990B0895CF92DF92EF92FF920F931F9335
:10124000CF93DF937C01CB018A01209114022223EA
:1012500089F0EB016B01C40ED51ECC15DD0569F0DC
:101260006991D701ED91FC910190F081E02DC701CA
:101270000995F3CF642F0E948A08C801DF91CF91AE
:101280001F910F91FF90EF90DF90CF900895CF9333
:10129000DF931F92CDB7DEB769832091140222231A
:1012A000F9F020913A02203258F021E030E0FC01C0
:1012B0003383228390E080E00F90DF91CF910895F7
:1012C00080913B02E82FF0E0EB5EFD4F9981908327
:1012D0008F5F80933B0280933A0281E090E0ECCFF5
:1012E00061E0CE0101960E948A08F7CFCF92DF928B
:1012F000EF92FF920F931F93CF93DF93FC01C48172
:1013000021E020931402C093350210923B02109208
:101310003A028385682B84E193E00E944709D091CB
:101320003A02D13208F092C00E942D036B017C0179
:1013300080910E02811165C082E080930E0281E0EF
:1013400080930D028FEF80930C0210920B02D093CA
:101350000A02A5E1B2E0EAEEF1E080E0D81385C030
:101360001092E9018091E901CC0FC82BC093E901EB
:101370008091E801813009F07CC01092E8010E9460
:101380002D036B017C018091E9018093BB0080916A
:10139000100290911102A0911202B0911302892BB8
:1013A0008A2B8B2B99F00E942D0300911002109133
:1013B000110220911202309113026C197D098E09DD
:1013C0009F090617170728073907E0F18091BC002D
:1013D00083FDD9CF85EC8093BC000E942D036B0167
:1013E0007C0180910E02823009F445C080910C028C
:1013F0008F3F61F180910C02803241F180910C02AB
:1014000025C08091100290911102A0911202B0911A
:101410001302892B8A2B8B2B09F48ACF0E942D0370
:1014200000911002109111022091120230911302CA
:101430006C197D098E099F090617170728073907B8
:1014400008F076CF80910F020E94CF0810923B02E5
:1014500010923A0210921402DF91CF911F910F91D6
:10146000FF90EF90DF90CF9008959D9191938F5FC3
:1014700075CF85EEB0CF8091100290911102A091AE
:101480001202B0911302892B8A2B8B2B09F4A9CF5E
:101490000E942D030091100210911102209112025E
:1014A000309113026C197D098E099F0906171707E1
:1014B0002807390708F095CFC5CF90E080E0089560
:1014C000EDE6F0E0883050F0EBE6F0E08E3030F002
:1014D000ECE6F0E0863110F0F0E0E0E09081282FBB
:1014E00030E0883010F541E050E060E070E0082E18
:1014F00004C0440F551F661F771F0A94D2F7492B6B
:1015000040839BB3883020F121E08E3008F420E046
:1015100081E001C0880F2A95EAF7982B9BBB909138
:101520006800892B8093680008958E3070F42850ED
:10153000310941E050E060E070E004C0440F551F05
:10154000661F771F2A95D2F7DACF2E503109F1CFD7
:1015500084E0E3CF0F931F93CF938C01C62F0E949B
:1015600076096C2F6460C8010E9476096C2F6B7F2E
:10157000C8010E94760983EC90E00197F1F7CF91C2
:101580001F910F9108950F931F93CF93DF938C01B9
:10159000D62FC42F607F642B0E94AA0A80E1D89FB7
:1015A000B00111246C2BC801DF91CF911F910F91D5
:1015B0000C94AA0A40E061E082E893E00E94C30A2A
:1015C0008BE39FE10197F1F70895CF93DF93CDB7B8
:1015D000DEB728970FB6F894DEBF0FBECDBF98E0F8
:1015E000E8E0F1E0DE01119601900D929A95E1F7A5
:1015F00090918B03961708F46FEF262F30E0220F9F
:10160000331F41E050E04C0F5D1F240F351FF901DF
:101610006081680F606840E082E893E028960FB62A
:10162000F894DEBF0FBECDBFDF91CF910C94C30AFB
:1016300041E00E94C30A81E090E00895FB0101901F
:101640000020E9F73197AF01461B570BDC01ED9104
:10165000FC910280F381E02D09948F929F92AF92CA
:10166000BF92EF92FF920F931F93CF93DF93CDB76B
:10167000DEB7A1970FB6F894DEBF0FBECDBF7C01D9
:10168000FA01CB0119A2223008F42AE08E010F5D85
:101690001F4F822E912CB12CA12CBF01A5019401CA
:1016A0000E942117F901CA016A300CF5605DD8016A
:1016B0006E938D01232B242B252B79F790E080E06E
:1016C000109721F0BD01C7010E941E0BA1960FB615
:1016D000F894DEBF0FBECDBFDF91CF911F910F9168
:1016E000FF90EF90BF90AF909F908F900895695CAE
:1016F000DECF2F923F924F925F926F927F928F92A6
:101700009F92AF92BF92CF92DF92EF92FF921F9380
:10171000CF93DF93EC016A017B01722EAB0196013E
:10172000CB01B6010E94901960E671E0811126C0DC
:1017300046015701E894B7F82FEF3FEF4FE75FE717
:10174000C501B4010E94901981110CC02FEF3FEF29
:101750004FE75FE7C501B4010E94BF1764E671E07F
:10176000181664F02FEF3FEF4FE75FE4C701B601B3
:101770000E941E191816B4F468E671E0CE01DF91DC
:10178000CF911F91FF90EF90DF90CF90BF90AF90DF
:101790009F908F907F906F905F904F903F902F9091
:1017A0000C941E0B2FEF3FEF4FE75FECC701B60124
:1017B0000E94BF1787FDE0CF20E030E0A901C701FC
:1017C000B6010E94BF17312C212C87FF0DC0E88184
:1017D000F9810190F081E02D6DE2CE0109951C01A7
:1017E000F7FAF094F7F8F09410E060E070E080E031
:1017F0009FE3711641F020E030E040E251E40E94A6
:10180000C4171F5FF6CFA70196010E9453172B0143
:101810003C010E943D184B015C012AE0BC01A4017F
:10182000CE010E942D0B7C01E20CF31C1123E1F18F
:10183000C501B4010E946C189B01AC01C301B20147
:101840000E9452174B015C01E881F9810190F081FF
:10185000E02D6EE2CE010995E80EF91E115020F13F
:1018600020E030E040E251E4C501B4010E942319B8
:101870002B013C010E943D184B01B12CA12C2AE008
:10188000B501A401CE010E942D0BE80EF91EC50181
:10189000B4010E946C189B01AC01C301B2010E940B
:1018A00052174B015C01DACFC701DF91CF911F9135
:1018B000FF90EF90DF90CF90BF90AF909F908F9070
:1018C0007F906F905F904F903F902F9008950C9471
:1018D000661A85ED8093BC008091100290911102F0
:1018E000A0911202B09113020796A11DB11D23E031
:1018F000B695A795979587952A95D1F72091BC0025
:1019000024FD03C010920E020895409110025091E0
:1019100011026091120270911302452B462B472B46
:1019200069F30097A105B10541F02AE22A95F1F784
:1019300000C00197A109B109E1CF80910F020C9479
:10194000CF081F920F920FB60F9211242F933F933F
:101950008F939F93AF93BF9380916F02909170028A
:10196000A0917102B091720230916E0223E0230FB8
:101970002D3758F50196A11DB11D20936E0280935D
:101980006F0290937002A0937102B09372028091E3
:10199000730290917402A0917502B0917602019643
:1019A000A11DB11D8093730290937402A0937502E0
:1019B000B0937602BF91AF919F918F913F912F91FC
:1019C0000F900FBE0F901F90189526E8230F0296D8
:1019D000A11DB11DD2CF1F920F920FB60F921124ED
:1019E0002F933F934F935F936F937F938F939F9327
:1019F000AF93BF93EF93FF9387E792E00E940404B5
:101A0000FF91EF91BF91AF919F918F917F916F91D6
:101A10005F914F913F912F910F900FBE0F901F90AC
:101A200018951F920F920FB60F9211242F938F9338
:101A30009F93EF93FF93E0918702F091880280815A
:101A4000E0918D02F0918E0282FD1BC09081809109
:101A500090028F5F8F7320919102821741F0E09185
:101A60009002F0E0E958FD4F958F80939002FF912E
:101A7000EF919F918F912F910F900FBE0F901F901C
:101A800018958081F4CF1F920F920FB60F921124F8
:101A90002F933F934F935F936F937F938F939F9376
:101AA000AF93BF93EF93FF938091B900887F803607
:101AB00009F44AC0F0F5883209F4A7C018F580315E
:101AC00009F49BC0B8F4882309F4F9C0883009F4FC
:101AD00094C0FF91EF91BF91AF919F918F917F91B2
:101AE0006F915F914F913F912F910F900FBE0F908B
:101AF0001F901895883109F488C0803251F780937F
:101B00000C0214C0803409F49DC040F48033B9F352
:101B10008833F9F680930C0285ECB0C0803509F467
:101B200085C0883509F496C0883499F60E94690CFE
:101B3000D0CF883909F48CC038F5883729F050F4B3
:101B4000883611F0803729F683E080930E021092D8
:101B5000E70157C0883809F47BC0803919F0803814
:101B600009F0B7CF8091E701803208F071C0E091B1
:101B7000E70181E08E0F8093E7018091BB00F0E0E8
:101B8000E953FE4F80833DC0803B39F0E0F4803A5A
:101B900009F479C0883A09F09CCF84E080930E0262
:101BA0001092C6011092C501E0913802F0913902FD
:101BB00009958091C50181110FC081E08093C50115
:101BC0001092A50109C0803C09F4A6CF883C09F415
:101BD000A3CF883B09F07DCFE091C60181E08E0F55
:101BE0008093C601F0E0EB55FE4F80818093BB00EF
:101BF0009091C6018091C50129C08091E90180932F
:101C0000BB0085EC8093BC0064CF90910B02809167
:101C10000A02981758F5E0910B0281E08E0F80932D
:101C20000B02F0E0E651FE4F8081E9CFE0910B021C
:101C300081E08E0F80930B028091BB00F0E0E651B3
:101C4000FE4F808390910B0280910A029817C8F290
:101C500085E8D8CFE0910B0281E08E0F80930B02D4
:101C60008091BB00F0E0E651FE4F808380910D0231
:101C700081115CCF81E08093E80184EA8093BC000D
:101C800010920E0226CF85EC8093BC0010920E02BB
:101C90008091E701803230F4E091E701F0E0E95310
:101CA000FE4F10826091E70170E0E0913602F09102
:101CB000370287EC91E009951092E7010ACF109264
:101CC0000C0234CF1F920F920FB60F9211242F9354
:101CD0003F934F935F936F937F938F939F93AF93B4
:101CE000BF93EF93FF9380913D0390913E03A091AA
:101CF0003F03B0914003892B8A2B8B2B11F00E945C
:101D0000A606FF91EF91BF91AF919F918F917F9127
:101D10006F915F914F913F912F910F900FBE0F9058
:101D20001F9018951F920F920FB60F9211242F93A8
:101D30003F934F935F936F937F938F939F93AF9353
:101D4000BF93EF93FF930E94E301982F9595892706
:101D500090913703981B90FF20C080933703892F01
:101D60008270082E000C990B20913403211126C09B
:101D700001972091350330913603280F391F309396
:101D80003603209335032091380330913903820FB5
:101D9000931F9093390380933803FF91EF91BF9184
:101DA000AF919F918F917F916F915F914F913F91F3
:101DB0002F910F900FBE0F901F90189521E030E0EB
:101DC000A901481B590BCA01D4CF8F929F92AF92A1
:101DD000BF92CF92DF92EF92FF9210927A0210920E
:101DE000790288EE93E0A0E0B0E080937B029093CC
:101DF0007C02A0937D02B0937E0224E131E0309317
:101E000078022093770225EC30E03093840220930F
:101E1000830224EC30E0309386022093850220EC8C
:101E200030E0309388022093870221EC30E0309339
:101E30008A022093890222EC30E030938C022093B6
:101E40008B0226EC30E030938E0220938D021092AC
:101E500090021092910210929202109293021092AC
:101E60001703109216038093180390931903A093FD
:101E70001A03B0931B0386E291E0909315038093BD
:101E80001403109285031092840388E591E09093E7
:101E900083038093820387E28093860380E18093AB
:101EA0008A0382E080938B0310928C0388E08093F6
:101EB0008D0360E08EE00E942A028EE090E0909315
:101EC0007F0380937E0381E090E090938103809371
:101ED000800328E331E030933B0320933A0321E071
:101EE0002093410310924A0310924B0310924C032B
:101EF00010924D0310924E0310924F031092500314
:101F000010925103109252031092530310925403F3
:101F100010925503109256031092570310925803D3
:101F20001092590310925A0310925B0310925C03B3
:101F300010925D03C12CD12C20E8E22E2FE3F22E6B
:101F4000C0925E03D0925F03E0926003F09261035F
:101F500010923D0310923E0310923F0310924003F3
:101F600090936703809366038FEF809369031092C9
:101F7000620310926303109264031092650383E07E
:101F80008093420384E0809343038093440385E07D
:101F9000809345031092680310926E0310926F03B2
:101FA00010927003109271031092720310927303D7
:101FB00010927403109275031092760310927703B7
:101FC0001092780310927903C0927A03D0927B0327
:101FD000E0927C03F0927D0310923C031092460342
:101FE0001092470310924803109249038AE393E04A
:101FF0000E94930480905A0390905B03A0905C032E
:10200000B0905D03A7019601C501B4010E94BF17FE
:10201000882381F160916E0370916F03809170034A
:10202000909171030E946E18A50194010E942319DA
:102030000E94361860936E0370936F038093700351
:102040009093710386E896E6A9E6B9E4809372035B
:1020500090937303A0937403B0937503C0925A03D3
:10206000D0925B03E0925C03F0925D038AE393E01D
:102070000E94000720E030E040E85FE360915603F3
:102080007091570380915803909159030E94BF1794
:10209000882339F180E090E0A0E8BFE38093560305
:1020A00090935703A0935803B093590380E094E2B0
:1020B000A4E7B9E480937A0390937B03A0937C0315
:1020C000B0937D0380916E0390916F03A091700394
:1020D000B0917103181619061A061B0614F40E9413
:1020E000590889E08093300388E08093310381E0D0
:1020F0008093320382E08093330310923403109272
:102100003603109235031092370310923903109260
:10211000380362E089E00E942A0262E088E00E94BF
:102120002A020E94E3018093370310923603109233
:10213000350381E090E0A0EFB1E480932C0390930D
:102140002D03A0932E03B0932F0381EF9DEBA7EFF8
:10215000BFE38093280390932903A0932A03B093AD
:102160002B0381E090E8A8EEB2E4809324039093DF
:102170002503A0932603B093270386E696E6A6E4FC
:10218000BFE38093200390932103A0932203B09395
:102190002303FF90EF90DF90CF90BF90AF909F9080
:1021A0008F900895CF93DF93CDB7DEB764970FB6C6
:1021B000F894DEBF0FBECDBF789484B5826084BD35
:1021C00084B5816084BD85B5826085BD85B581603B
:1021D00085BD80916E00816080936E0010928100B9
:1021E0008091810082608093810080918100816074
:1021F0008093810080918000816080938000809135
:10220000B10084608093B1008091B00081608093C0
:10221000B00080917A00846080937A0080917A0087
:10222000826080937A0080917A00816080937A0046
:1022300080917A00806880937A001092C100E091CA
:102240008702F091880282E08083E0918302F0911E
:1022500084021082E0918502F091860280E1808301
:1022600010928F02E0918B02F0918C0286E08083C5
:10227000E0918902F0918A02808180618083E091FF
:102280008902F0918A02808188608083E0918902CE
:10229000F0918A02808180688083E0918902F091C8
:1022A0008A0280818F7D80832FB72983F89488E00C
:1022B0000E94600A89E00E94600A8FB7F894109229
:1022C00039031092380310923603109235038FBFF2
:1022D00039813FBF81E08093340361E082E00E9456
:1022E0002A0261E082E00E94FC0161E08DE00E9430
:1022F0002A0262E087E00E942A0262E08AE00E94ED
:102300002A0260E08FE00E942A0262E08CE00E94D4
:102310002A0220E030E04AEF54E4609156037091C5
:10232000570380915803909159030E94BF17882347
:1023300039F180E090E0AAEFB4E4809356039093E3
:102340005703A0935803B093590380E090E0AAEF9D
:10235000B3E480937A0390937B03A0937C03B093C0
:102360007D0380916E0390916F03A0917003B091F3
:102370007103181619061A061B0614F40E94590850
:1023800060E08DE00E94FC0160E084E00E94FC01BE
:1023900061E082E00E94FC0161E085E00E942A0287
:1023A0002FB7F89460916F02709170028091710262
:1023B000909172022FBF0E946C1860935A02709322
:1023C0005B0280935C0290935D02F894109280000F
:1023D0001092810010928500109284001092890062
:1023E00010928800809181008860809381008091A4
:1023F000810085608093810082E080936F007894F3
:1024000080E090E0A8ECB2E480935E0290935F02DB
:10241000A0936002B093610261E08DE00E94FC0134
:1024200010923D0210923C0210923B0210923A022E
:102430000E94B10884E893E09093390280933802B7
:1024400085E893E0909337028093360210928703D9
:1024500080918B03823018F098E0909387039091DD
:102460008C03992339F0813029F4809187038460AB
:102470008093870362E370E080E090E00E94520363
:1024800060918D0382E893E00E94760968EE73E024
:1024900080E090E00E94520360E382E893E00E94B3
:1024A000AA0A0BE416E4C8010197F1F760E382E899
:1024B00093E00E94AA0AC8010197F1F760E382E85D
:1024C00093E00E94AA0A83E592E00197F1F760E2A7
:1024D00082E893E00E94AA0A60918703606240E06C
:1024E00082E893E00E94C30A84E08093880340E07E
:1024F0006CE082E893E00E94C30A0E94DA0A82E05C
:102500008093890340E066E082E893E00E94C30A7A
:1025100040E062E082E893E00E94C30A8BE39FE11F
:102520000197F1F788E080938D0360E082E893E003
:102530000E9476090E94DA0A84E0282E312C8CE071
:102540000E94BA01892B09F076C380916D0288231D
:1025500009F471C310926D0280916C0241E08427EE
:1025600080936C026AE070E080E090E00E94520389
:1025700087E00E94BA01892B21F480910101811129
:1025800068C387E00E94BA01892B09F071C38AE011
:102590000E94BA01892B21F480910001811170C33E
:1025A0008AE00E94BA01892B09F079C380916A02FE
:1025B00061E0811101C060E086E00E94FC01809131
:1025C0006B0261E0882309F472C38DE00E94FC0174
:1025D00060E082E00E94FC010AE010E0F12CE12CB6
:1025E0008FE00E946602E80EF91E01501109C1F742
:1025F000C7016AE070E00E94951920ED37E0DB0129
:102600000E94AF192FEF33E040E050E00E94021724
:102610003093690220936802B901330F880B990B3C
:102620000E946E180E9406010E947B026093640261
:1026300070936502809366029093670280916C02AA
:10264000882309F4C0C34FB7F89420913503309123
:102650003603822F90913303923009F448C39430AB
:1026600009F058C38091350390913603B1010E945F
:1026700095199093360380933503822F27FF02C06C
:1026800083E0820F859585954FBF882309F441C06B
:102690002FB7F8946091330370E0809138039091E4
:1026A00039030E9495192FBF7093630260936202F1
:1026B0006091620270916302072E000C880B990BE7
:1026C0000E946E1820E030E046E153E40E941E199B
:1026D00018160CF024C326E930E0309363022093EF
:1026E00062026091620270916302072E000C880BF7
:1026F000990B0E946E1820E030E048EC52E40E94F2
:10270000531760935E0270935F0280936002909310
:10271000610280915A0290915B02A0915C02B0919B
:102720005D028093560290935702A0935802B09393
:1027300059020E947B029B01AC01209364023093FA
:102740006502409366025093670260915E02709149
:102750005F0280916002909161020E945217609323
:1027600052027093530280935402909355022FB7F4
:10277000F89460916F027091700280917102909153
:1027800072022FBF0E946C1860935A0270935B0212
:1027900080935C0290935D02209156023091570223
:1027A00040915802509159020E94521720E030E0A7
:1027B0004AE754E40E94C4176B017C0180912C030A
:1027C00090912D03A0912E03B0912F0389839A83BA
:1027D000AB83BC8340902403509025036090260374
:1027E00070902703A7019601C301B2010E94C4178C
:1027F0004B015C01609120037091210380912203C1
:10280000909123039B01AC010E9453179B01AC01E3
:10281000C701B6010E94C4176D877E878F87988B8A
:10282000209152023091530240915402509155022E
:102830002D833E834F83588780914A0290914B02AB
:10284000A0914C02B0914D0289879A87AB87BC87D3
:10285000209128033091290340912A0350912B03A2
:10286000C701B6010E94231929813A814B815C81FD
:102870000E9453172D813E814F8158850E94231954
:1028800020914E0230914F024091500250915102DE
:102890000E945317698B7A8B8B8B9C8B69817A8111
:1028A0008B819C81905829853A854B855C850E9457
:1028B00023199B01AC0169897A898B899C890E94C3
:1028C0005317698B7A8B8B8B9C8B209146023091AE
:1028D0004702409148025091490229833A834B8331
:1028E0005C8320E030E040E050ECC301B2010E9484
:1028F0002319A70196010E94C41729853A854B85A3
:102900005C850E9423196B017C012D813E814F81E2
:102910005885C501B4010E9423199B01AC01C70170
:10292000B6010E9453176B017C0120914202309145
:1029300043024091440250914502C501B4010E94F6
:1029400023199B01AC01C701B6010E9453174B012B
:102950005C018092460290924702A0924802B09297
:10296000490220E030E040E85FE36D857E858F8599
:1029700098890E9452176B017C01AC019B016D8507
:102980007E858F8598890E94C4172B013C01A50183
:10299000940169817A818B819C810E9453179B01EC
:1029A000AC01C301B2010E9423194B015C0120E07C
:1029B00030E040E85FE36D857E858F8598890E94D1
:1029C00053179B01AC01C701B6010E94C4172091A7
:1029D0003E0230913F0240914002509141020E94DC
:1029E00023199B01AC01C501B4010E9452179B0140
:1029F000AC0120933E0230933F024093400250933B
:102A0000410269897A898B899C890E945317609356
:102A10004E0270934F028093500290935102298589
:102A20003A854B855C852093420230934302409364
:102A30004402509345022D813E814F815885209359
:102A40004A0230934B0240934C0250934D0220E0D7
:102A500030E0A9010E94BF1787FF08C010924E0204
:102A600010924F02109250021092510220E030E07A
:102A70004FE753E460914E0270914F0280915002F3
:102A8000909151020E941E19181664F480E090E0A3
:102A9000AFE7B3E480934E0290934F02A0935002AD
:102AA000B093510260914E0270914F02809150029A
:102AB000909151020E9436184B017B0161E085E044
:102AC0000E942A028114910409F034C160E085E07B
:102AD0000E94FC01409152025091530260915402B5
:102AE0007091550222E087E792E00E94790B4091B5
:102AF0003E0250913F02609140027091410222E0FB
:102B000087E792E00E94790B6CE671E087E792E03C
:102B10000E941E0B0E94DA0A60E080E00E94E50A33
:102B20006FE671E082E893E00E941E0B40915E0226
:102B300050915F02609160027091610220E082E832
:102B400093E00E94790B60E088E00E94E50A64E768
:102B500071E082E893E00E941E0B40916402509164
:102B60006502609166027091670221E082E893E05D
:102B70000E94790B61E080E00E94E50A67E771E05E
:102B800082E893E00E941E0B40914E0250914F024A
:102B9000609150027091510220E082E893E00E941F
:102BA000790B61E088E00E94E50A6CE771E082E859
:102BB00093E00E941E0BA0916802B091690228E484
:102BC00030E00E94AF1920ED37E040E050E00E9475
:102BD000021769017A012AE0BA01A601F7FE0EC0C8
:102BE00041E06DE282E893E00E94C30A4427552742
:102BF000BA014C195D096E097F092AE082E893E069
:102C00000E942D0B6FE771E082E893E00E941E0B9B
:102C10006AEF70E080E090E00E94520340E050E0F4
:102C2000452B09F48CCC0E94F003882309F484CC52
:102C30000E94000081CC8CE00E94BA01892B09F42B
:102C400097CC80916D02811193CC51E050936D022D
:102C50008FCC1092010180916B0291E089278093C3
:102C60006B026AE070E080E090E00E9452038FCC3B
:102C70008091010181118BCCA1E0A093010187CC4F
:102C800080916A0210920001B1E08B2780936A0262
:102C90006AE070E080E090E00E94520387CC80916F
:102CA0000001811183CCE1E0E09300017FCC82E060
:102CB0000E94FC0160E08DE00E94FC01109269021C
:102CC0001092680260E070E0CB010E9406018091E2
:102CD0003D0390913E03A0913F03B0914003892BA7
:102CE0008A2B8B2B09F4A0CC0E94A6069DCC809148
:102CF00035039091360362E070E00E94951990933D
:102D0000360380933503822F27FF02C081E0820FB4
:102D10008595BACC1092360310923503B5CC8091CC
:102D200062029091630297FFDCCC109263021092D2
:102D30006202D7CC3FEF8316910411F461E0C7CE55
:102D4000E7EAF1E08491833021F148F48130B9F071
:102D50008230D1F0F0E8EF16F10484F7B7CE873077
:102D600011F1883041F18430A9F7809180008062B0
:102D70008093800090928B0080928A00ABCE84B5C5
:102D8000806884BD87BCA6CE84B5806284BD88BCC3
:102D9000A1CE80918000806880938000909289000D
:102DA0008092880097CE8091B00080688093B000B8
:102DB0008092B3008FCE8091B00080628093B0008B
:102DC0008092B40087CE10924E0210924F02109261
:102DD00050021092510261E085E00E942A0260E0F8
:102DE00085E00E94FC0120E030E048EC52E42093B2
:102DF0005E0230935F024093600250936102109232
:102E00006C0288CE052E97FB1EF400940E941917C1
:102E100057FD07D00E94211707FC03D04EF40C94F5
:102E2000191750954095309521953F4F4F4F5F4F63
:102E3000089590958095709561957F4F8F4F9F4F26
:102E40000895A1E21A2EAA1BBB1BFD010DC0AA1FEB
:102E5000BB1FEE1FFF1FA217B307E407F50720F003
:102E6000A21BB30BE40BF50B661F771F881F991F7E
:102E70001A9469F760957095809590959B01AC01C7
:102E8000BD01CF010895A29FB001B39FC001A39FD0
:102E9000700D811D1124911DB29F700D811D112493
:102EA000911D08955058BB27AA270E946A170C94B9
:102EB000E4180E94D61838F00E94DD1820F039F48A
:102EC0009F3F19F426F40C94D3180EF4E095E7FB19
:102ED0000C94CD18E92F0E94F51858F3BA17620721
:102EE00073078407950720F079F4A6F50C94171959
:102EF0000EF4E0950B2EBA2FA02D0B01B901900115
:102F00000C01CA01A0011124FF27591B99F0593F58
:102F100050F4503E68F11A16F040A22F232F342FA0
:102F20004427585FF3CF469537952795A795F040EE
:102F30005395C9F77EF41F16BA0B620B730B840B03
:102F4000BAF09150A1F0FF0FBB1F661F771F881FBB
:102F5000C2F70EC0BA0F621F731F841F48F4879513
:102F600077956795B795F7959E3F08F0B0CF939505
:102F7000880F08F09927EE0F9795879508950E947E
:102F8000A91808F481E008950E94D8170C94E41859
:102F90000E94DD1858F00E94D61840F029F45F3FD7
:102FA00029F00C94CD1851110C9418190C94D318C5
:102FB0000E94F51868F39923B1F3552391F3951BFB
:102FC000550BBB27AA2762177307840738F09F5F4A
:102FD0005F4F220F331F441FAA1FA9F335D00E2EB7
:102FE0003AF0E0E832D091505040E695001CCAF724
:102FF0002BD0FE2F29D0660F771F881FBB1F2617E7
:1030000037074807AB07B0E809F0BB0B802DBF01BD
:10301000FF2793585F4F3AF09E3F510578F00C948C
:10302000CD180C9418195F3FE4F3983ED4F38695BD
:1030300077956795B795F7959F5FC9F7880F911DAD
:103040009695879597F90895E1E0660F771F881F99
:10305000BB1F621773078407BA0720F0621B730B4C
:10306000840BBA0BEE1F88F7E09508950E943D1877
:103070006894B1110C94181908950E94FD1888F0F5
:103080009F5798F0B92F9927B751B0F0E1F0660F2C
:10309000771F881F991F1AF0BA95C9F714C0B1306D
:1030A00091F00E941719B1E008950C941719672F39
:1030B000782F8827B85F39F0B93FCCF3869577959C
:1030C0006795B395D9F73EF4909580957095619585
:1030D0007F4F8F4F9F4F0895E89409C097FB3EF4B0
:1030E00090958095709561957F4F8F4F9F4F992355
:1030F000A9F0F92F96E9BB279395F69587957795D3
:103100006795B795F111F8CFFAF4BB0F11F460FF92
:103110001BC06F5F7F4F8F4F9F4F16C0882311F0EA
:1031200096E911C0772321F09EE8872F762F05C0FE
:10313000662371F096E8862F70E060E02AF09A9599
:10314000660F771F881FDAF7880F9695879597F98E
:103150000895990F0008550FAA0BE0E8FEEF161628
:103160001706E807F907C0F012161306E407F5077B
:1031700098F0621B730B840B950B39F40A2661F0EF
:10318000232B242B252B21F408950A2609F4A14092
:10319000A6958FEF811D811D089597F99F6780E89F
:1031A00070E060E008959FEF80EC089500240A9499
:1031B0001616170618060906089500240A94121612
:1031C0001306140605060895092E0394000C11F445
:1031D000882352F0BB0F40F4BF2B11F460FF04C0F2
:1031E0006F5F7F4F8F4F9F4F089557FD9058440F4B
:1031F000551F59F05F3F71F04795880F97FB991F56
:1032000061F09F3F79F08795089512161306140612
:10321000551FF2CF4695F1DF08C01616170618069F
:10322000991FF1CF86957105610508940895E8947A
:10323000BB2766277727CB0197F908950E94A91825
:1032400008F48FEF08950E9436190C94E4180E9438
:10325000D61838F00E94DD1820F0952311F00C9458
:10326000CD180C94D31811240C9418190E94F51839
:1032700070F3959FC1F3950F50E0551F629FF001C9
:10328000729FBB27F00DB11D639FAA27F00DB11DE2
:10329000AA1F649F6627B00DA11D661F829F22276B
:1032A000B00DA11D621F739FB00DA11D621F839FF2
:1032B000A00D611D221F749F3327A00D611D231FC8
:1032C000849F600D211D822F762F6A2F11249F5716
:1032D00050409AF0F1F088234AF0EE0FFF1FBB1F19
:1032E000661F771F881F91505040A9F79E3F5105D8
:1032F00080F00C94CD180C9418195F3FE4F3983EBD
:10330000D4F3869577956795B795F795E7959F5F81
:10331000C1F7FE2B880F911D9695879597F9089513
:103320000E94A918880B990B089597FB072E16F495
:10333000009407D077FD09D00E94B61907FC05D08C
:103340003EF4909581959F4F0895709561957F4FBC
:103350000895EE0FFF1F0590F491E02D09940E944F
:103360004317B7FF0895821B930B0895AA1BBB1B3D
:1033700051E107C0AA1FBB1FA617B70710F0A61B75
:10338000B70B881F991F5A95A9F780959095BC0196
:10339000CD0108950F931F93CF93DF938230910552
:1033A00010F482E090E0E0919003F091910330E01E
:1033B00020E0B0E0A0E0309799F42115310509F440
:1033C0004AC0281B390B24303105D8F58A819B81EE
:1033D0006115710589F1FB0193838283FE0111C0A0
:1033E000408151810281138148175907E0F0481745
:1033F000590799F4109761F012960C93129713964F
:103400001C933296CF01DF91CF911F910F910895B8
:103410000093900310939103F4CF2115310551F0DF
:103420004217530738F0A901DB019A01BD01DF0102
:10343000F801C1CFEF01F9CF9093910380939003EE
:10344000CDCFFE01E20FF31F8193919322503109FA
:1034500039832883D7CF20918E0330918F03232B7C
:1034600041F4209104013091050130938F032093A2
:103470008E0320910201309103012115310541F4A1
:103480002DB73EB74091060150910701241B350B23
:10349000E0918E03F0918F03E217F307A0F42E1B47
:1034A0003F0B2817390778F0AC014E5F5F4F2417A8
:1034B000350748F04E0F5F1F50938F0340938E03E4
:1034C000819391939FCFF0E0E0E09CCFCF93DF9387
:1034D0000097E9F0FC01329713821282A0919003C9
:1034E000B0919103ED0130E020E01097A1F420812C
:1034F0003181820F931F20918E0330918F03281703
:10350000390709F061C0F0938F03E0938E03DF91D8
:10351000CF910895EA01CE17DF07E8F54A815B8174
:103520009E0141155105B1F7E901FB83EA834991F9
:103530005991C40FD51FEC17FD0761F4808191816B
:103540000296840F951FE901998388838281938174
:103550009B838A83F0E0E0E012968D919C91139713
:103560000097B9F52D913C911197CD010296820FEC
:10357000931F20918E0330918F032817390739F656
:10358000309751F51092910310929003B0938F03EE
:10359000A0938E03BCCFD383C28340815181840F1B
:1035A000951FC817D90761F44E5F5F4F88819981D5
:1035B000480F591F518340838A819B819383828363
:1035C0002115310509F0B0CFF0939103E0939003FA
:1035D0009ECFFD01DC01C0CF13821282D7CFF894B9
:0235E000FFCF1B
:1035E200010100009203800000004000140054001A
:1035F2000000000026048603B3037304E403C2033D
:10360200D6030000000047091A095D0AF0081309F1
:103612000009F10800000000C70493048808670C41
:103622000007280666061206E005BF058B056A0537
:103632001405E50400000000180B86035D0A8908E2
:103642006E616E00696E66006F7666000D0A005448
:1036520073703A00543A005049443A00533A0020F9
:0436620072706D0015
:00000001FF
